{
  "_format": "hh-sol-artifact-1",
  "contractName": "KyberswapDistributor",
  "sourceName": "contracts/distributor/KyberswapDistributor.sol",
  "abi": [
    {
      "inputs": [
        {
          "internalType": "address",
          "name": "admin",
          "type": "address"
        }
      ],
      "stateMutability": "nonpayable",
      "type": "constructor"
    },
    {
      "anonymous": false,
      "inputs": [
        {
          "indexed": true,
          "internalType": "uint256",
          "name": "id",
          "type": "uint256"
        },
        {
          "indexed": false,
          "internalType": "address",
          "name": "user",
          "type": "address"
        },
        {
          "indexed": false,
          "internalType": "contract IERC20[]",
          "name": "tokens",
          "type": "address[]"
        },
        {
          "indexed": false,
          "internalType": "uint256[]",
          "name": "claimAmounts",
          "type": "uint256[]"
        }
      ],
      "name": "Claimed",
      "type": "event"
    },
    {
      "anonymous": false,
      "inputs": [
        {
          "indexed": true,
          "internalType": "address",
          "name": "previousOwner",
          "type": "address"
        },
        {
          "indexed": true,
          "internalType": "address",
          "name": "newOwner",
          "type": "address"
        }
      ],
      "name": "OwnershipTransferred",
      "type": "event"
    },
    {
      "anonymous": false,
      "inputs": [
        {
          "indexed": true,
          "internalType": "uint256",
          "name": "id",
          "type": "uint256"
        },
        {
          "indexed": false,
          "internalType": "bytes32",
          "name": "root",
          "type": "bytes32"
        },
        {
          "indexed": true,
          "internalType": "uint256",
          "name": "deadline",
          "type": "uint256"
        },
        {
          "indexed": false,
          "internalType": "string",
          "name": "content",
          "type": "string"
        }
      ],
      "name": "PhaseCreated",
      "type": "event"
    },
    {
      "anonymous": false,
      "inputs": [
        {
          "indexed": true,
          "internalType": "uint256",
          "name": "id",
          "type": "uint256"
        },
        {
          "indexed": true,
          "internalType": "uint256",
          "name": "newTime",
          "type": "uint256"
        }
      ],
      "name": "PhaseUpdated",
      "type": "event"
    },
    {
      "inputs": [
        {
          "internalType": "uint256",
          "name": "id",
          "type": "uint256"
        },
        {
          "internalType": "uint256",
          "name": "index",
          "type": "uint256"
        },
        {
          "internalType": "address",
          "name": "user",
          "type": "address"
        },
        {
          "internalType": "contract IERC20[]",
          "name": "tokens",
          "type": "address[]"
        },
        {
          "internalType": "uint256[]",
          "name": "amounts",
          "type": "uint256[]"
        },
        {
          "internalType": "bytes32[]",
          "name": "merkleProof",
          "type": "bytes32[]"
        }
      ],
      "name": "claim",
      "outputs": [],
      "stateMutability": "nonpayable",
      "type": "function"
    },
    {
      "inputs": [
        {
          "internalType": "address",
          "name": "",
          "type": "address"
        },
        {
          "internalType": "uint256",
          "name": "",
          "type": "uint256"
        },
        {
          "internalType": "contract IERC20",
          "name": "",
          "type": "address"
        }
      ],
      "name": "claimedAmounts",
      "outputs": [
        {
          "internalType": "uint256",
          "name": "",
          "type": "uint256"
        }
      ],
      "stateMutability": "view",
      "type": "function"
    },
    {
      "inputs": [
        {
          "internalType": "uint256",
          "name": "",
          "type": "uint256"
        }
      ],
      "name": "distributionInfo",
      "outputs": [
        {
          "internalType": "bytes32",
          "name": "root",
          "type": "bytes32"
        },
        {
          "internalType": "uint256",
          "name": "deadline",
          "type": "uint256"
        },
        {
          "internalType": "string",
          "name": "content",
          "type": "string"
        }
      ],
      "stateMutability": "view",
      "type": "function"
    },
    {
      "inputs": [
        {
          "internalType": "uint256",
          "name": "id",
          "type": "uint256"
        },
        {
          "internalType": "uint256",
          "name": "index",
          "type": "uint256"
        },
        {
          "internalType": "address",
          "name": "account",
          "type": "address"
        },
        {
          "internalType": "contract IERC20[]",
          "name": "tokens",
          "type": "address[]"
        },
        {
          "internalType": "uint256[]",
          "name": "amounts",
          "type": "uint256[]"
        }
      ],
      "name": "encodeClaim",
      "outputs": [
        {
          "internalType": "bytes",
          "name": "encodedData",
          "type": "bytes"
        },
        {
          "internalType": "bytes32",
          "name": "encodedDataHash",
          "type": "bytes32"
        }
      ],
      "stateMutability": "pure",
      "type": "function"
    },
    {
      "inputs": [
        {
          "internalType": "uint256",
          "name": "id",
          "type": "uint256"
        },
        {
          "internalType": "address",
          "name": "user",
          "type": "address"
        },
        {
          "internalType": "contract IERC20[]",
          "name": "tokens",
          "type": "address[]"
        }
      ],
      "name": "getClaimedAmounts",
      "outputs": [
        {
          "internalType": "uint256[]",
          "name": "userClaimedAmounts",
          "type": "uint256[]"
        }
      ],
      "stateMutability": "view",
      "type": "function"
    },
    {
      "inputs": [
        {
          "internalType": "uint256",
          "name": "id",
          "type": "uint256"
        },
        {
          "internalType": "uint256",
          "name": "index",
          "type": "uint256"
        },
        {
          "internalType": "address",
          "name": "user",
          "type": "address"
        },
        {
          "internalType": "contract IERC20[]",
          "name": "tokens",
          "type": "address[]"
        },
        {
          "internalType": "uint256[]",
          "name": "amounts",
          "type": "uint256[]"
        },
        {
          "internalType": "bytes32[]",
          "name": "merkleProof",
          "type": "bytes32[]"
        }
      ],
      "name": "isValidClaim",
      "outputs": [
        {
          "internalType": "bool",
          "name": "",
          "type": "bool"
        }
      ],
      "stateMutability": "view",
      "type": "function"
    },
    {
      "inputs": [],
      "name": "owner",
      "outputs": [
        {
          "internalType": "address",
          "name": "",
          "type": "address"
        }
      ],
      "stateMutability": "view",
      "type": "function"
    },
    {
      "inputs": [
        {
          "internalType": "contract IERC20[]",
          "name": "tokens",
          "type": "address[]"
        },
        {
          "internalType": "uint256[]",
          "name": "amounts",
          "type": "uint256[]"
        }
      ],
      "name": "ownerWithdraw",
      "outputs": [],
      "stateMutability": "nonpayable",
      "type": "function"
    },
    {
      "inputs": [],
      "name": "phaseId",
      "outputs": [
        {
          "internalType": "uint256",
          "name": "",
          "type": "uint256"
        }
      ],
      "stateMutability": "view",
      "type": "function"
    },
    {
      "inputs": [
        {
          "internalType": "bytes32",
          "name": "root",
          "type": "bytes32"
        },
        {
          "internalType": "uint256",
          "name": "deadline",
          "type": "uint256"
        },
        {
          "internalType": "string",
          "name": "content",
          "type": "string"
        }
      ],
      "name": "proposeDistribution",
      "outputs": [],
      "stateMutability": "nonpayable",
      "type": "function"
    },
    {
      "inputs": [],
      "name": "renounceOwnership",
      "outputs": [],
      "stateMutability": "nonpayable",
      "type": "function"
    },
    {
      "inputs": [
        {
          "internalType": "address",
          "name": "newOwner",
          "type": "address"
        }
      ],
      "name": "transferOwnership",
      "outputs": [],
      "stateMutability": "nonpayable",
      "type": "function"
    },
    {
      "inputs": [
        {
          "internalType": "uint256",
          "name": "id",
          "type": "uint256"
        },
        {
          "internalType": "uint256",
          "name": "newTime",
          "type": "uint256"
        }
      ],
      "name": "updateDistributionTime",
      "outputs": [],
      "stateMutability": "nonpayable",
      "type": "function"
    },
    {
      "stateMutability": "payable",
      "type": "receive"
    }
  ],
  "bytecode": "0x60806040523480156200001157600080fd5b50604051620020563803806200205683398101604081905262000034916200017a565b6200003f3362000055565b600180556200004e81620000a5565b50620001ac565b600080546001600160a01b038381166001600160a01b0319831681178455604051919092169283917f8be0079c531659141344cd1fd0a4f28419497f9722a3daafe3b4186f6b6457e09190a35050565b6000546001600160a01b03163314620001055760405162461bcd60e51b815260206004820181905260248201527f4f776e61626c653a2063616c6c6572206973206e6f7420746865206f776e657260448201526064015b60405180910390fd5b6001600160a01b0381166200016c5760405162461bcd60e51b815260206004820152602660248201527f4f776e61626c653a206e6577206f776e657220697320746865207a65726f206160448201526564647265737360d01b6064820152608401620000fc565b620001778162000055565b50565b6000602082840312156200018d57600080fd5b81516001600160a01b0381168114620001a557600080fd5b9392505050565b611e9a80620001bc6000396000f3fe6080604052600436106100d55760003560e01c80638da5cb5b1161007f578063cb3b0bab11610059578063cb3b0bab14610243578063f2fde38b14610270578063f4ec1cf314610290578063f960713f146102b057600080fd5b80638da5cb5b146101c057806397e971d0146101f5578063c390d3311461022357600080fd5b8063390556f2116100b0578063390556f21461016757806358303b1014610187578063715018a6146101ab57600080fd5b8062db01e0146100e157806301bc5898146101035780632b6063a31461013857600080fd5b366100dc57005b600080fd5b3480156100ed57600080fd5b506101016100fc3660046116bf565b6102ee565b005b34801561010f57600080fd5b5061012361011e36600461174f565b610492565b60405190151581526020015b60405180910390f35b34801561014457600080fd5b50610158610153366004611811565b610573565b60405161012f939291906118a4565b34801561017357600080fd5b506101016101823660046118cc565b61061e565b34801561019357600080fd5b5061019d60025481565b60405190815260200161012f565b3480156101b757600080fd5b506101016107ad565b3480156101cc57600080fd5b5060005460405173ffffffffffffffffffffffffffffffffffffffff909116815260200161012f565b34801561020157600080fd5b50610215610210366004611938565b61083a565b60405161012f9291906119ce565b34801561022f57600080fd5b5061010161023e36600461174f565b6108eb565b34801561024f57600080fd5b5061026361025e3660046119f0565b610ca9565b60405161012f9190611a7b565b34801561027c57600080fd5b5061010161028b366004611a8e565b610dc6565b34801561029c57600080fd5b506101016102ab366004611ada565b610ef6565b3480156102bc57600080fd5b5061019d6102cb366004611bbc565b600460209081526000938452604080852082529284528284209052825290205481565b60005473ffffffffffffffffffffffffffffffffffffffff163314610374576040517f08c379a000000000000000000000000000000000000000000000000000000000815260206004820181905260248201527f4f776e61626c653a2063616c6c6572206973206e6f7420746865206f776e657260448201526064015b60405180910390fd5b8160025410156103e0576040517f08c379a000000000000000000000000000000000000000000000000000000000815260206004820152600d60248201527f496e76616c696420706861736500000000000000000000000000000000000000604482015260640161036b565b4263ffffffff16811015610450576040517f08c379a000000000000000000000000000000000000000000000000000000000815260206004820152600c60248201527f496e76616c69642074696d650000000000000000000000000000000000000000604482015260640161036b565b60008281526003602052604080822060010183905551829184917fa89951a03e2758c1bc16583a91fbb676c836dcda755bf7d40c05625b2bfdccec9190a35050565b60008584146104a357506000610566565b60008a8152600360205260409020600101544263ffffffff16106104c957506000610566565b60008a8a8a8a8a8a8a6040516020016104e89796959493929190611c49565b604051602081830303815290604052805190602001209050610562848480806020026020016040519081016040528093929190818152602001838360200280828437600081840152601f19601f82011690508083019250505050505050600360008e8152602001908152602001600020600001548361101e565b9150505b9998505050505050505050565b6003602052600090815260409020805460018201546002830180549293919261059b90611cdf565b80601f01602080910402602001604051908101604052809291908181526020018280546105c790611cdf565b80156106145780601f106105e957610100808354040283529160200191610614565b820191906000526020600020905b8154815290600101906020018083116105f757829003601f168201915b5050505050905083565b60005473ffffffffffffffffffffffffffffffffffffffff16331461069f576040517f08c379a000000000000000000000000000000000000000000000000000000000815260206004820181905260248201527f4f776e61626c653a2063616c6c6572206973206e6f7420746865206f776e6572604482015260640161036b565b60005b838110156107a65760008585838181106106be576106be611d33565b90506020020160208101906106d39190611a8e565b73ffffffffffffffffffffffffffffffffffffffff1614156107335761072e83838381811061070457610704611d33565b905060200201356107123390565b73ffffffffffffffffffffffffffffffffffffffff16906110cf565b610794565b6107943384848481811061074957610749611d33565b9050602002013587878581811061076257610762611d33565b90506020020160208101906107779190611a8e565b73ffffffffffffffffffffffffffffffffffffffff16919061122e565b8061079e81611d91565b9150506106a2565b5050505050565b60005473ffffffffffffffffffffffffffffffffffffffff16331461082e576040517f08c379a000000000000000000000000000000000000000000000000000000000815260206004820181905260248201527f4f776e61626c653a2063616c6c6572206973206e6f7420746865206f776e6572604482015260640161036b565b61083860006112bb565b565b606060008483146108a7576040517f08c379a000000000000000000000000000000000000000000000000000000000815260206004820152601d60248201527f62616420746f6b656e7320616e6420616d6f756e7473206c656e677468000000604482015260640161036b565b888888888888886040516020016108c49796959493929190611c49565b60405160208183030381529060405291508180519060200120905097509795505050505050565b60026001541415610958576040517f08c379a000000000000000000000000000000000000000000000000000000000815260206004820152601f60248201527f5265656e7472616e637947756172643a207265656e7472616e742063616c6c00604482015260640161036b565b600260015561096e898989898989898989610492565b6109d4576040517f08c379a000000000000000000000000000000000000000000000000000000000815260206004820152601260248201527f696e76616c696420636c61696d20646174610000000000000000000000000000604482015260640161036b565b60008567ffffffffffffffff8111156109ef576109ef611aab565b604051908082528060200260200182016040528015610a18578160200160208202803683370190505b50905060005b86811015610c5a57858582818110610a3857610a38611d33565b9050602002013560001415610a4c57610c48565b73ffffffffffffffffffffffffffffffffffffffff891660009081526004602090815260408083208e84529091528120818a8a85818110610a8f57610a8f611d33565b9050602002016020810190610aa49190611a8e565b73ffffffffffffffffffffffffffffffffffffffff1673ffffffffffffffffffffffffffffffffffffffff16815260200190815260200160002054878784818110610af157610af1611d33565b90506020020135610b029190611dca565b905080610b0f5750610c48565b6000898984818110610b2357610b23611d33565b9050602002016020810190610b389190611a8e565b73ffffffffffffffffffffffffffffffffffffffff161415610b7957610b7473ffffffffffffffffffffffffffffffffffffffff8b16826110cf565b610b90565b610b908a828b8b8681811061076257610762611d33565b73ffffffffffffffffffffffffffffffffffffffff8a1660009081526004602090815260408083208f8452909152812082918b8b86818110610bd457610bd4611d33565b9050602002016020810190610be99190611a8e565b73ffffffffffffffffffffffffffffffffffffffff1673ffffffffffffffffffffffffffffffffffffffff1681526020019081526020016000208190555080838381518110610c3a57610c3a611d33565b602002602001018181525050505b80610c5281611d91565b915050610a1e565b50897f1869cd8d657c37384f585ccf16d7d1baddfcb0552617440f4fefe638726094c489898985604051610c919493929190611de1565b60405180910390a25050600180555050505050505050565b60608167ffffffffffffffff811115610cc457610cc4611aab565b604051908082528060200260200182016040528015610ced578160200160208202803683370190505b50905060005b82811015610dbd5773ffffffffffffffffffffffffffffffffffffffff85166000908152600460209081526040808320898452909152812090858584818110610d3e57610d3e611d33565b9050602002016020810190610d539190611a8e565b73ffffffffffffffffffffffffffffffffffffffff1673ffffffffffffffffffffffffffffffffffffffff16815260200190815260200160002054828281518110610da057610da0611d33565b602090810291909101015280610db581611d91565b915050610cf3565b50949350505050565b60005473ffffffffffffffffffffffffffffffffffffffff163314610e47576040517f08c379a000000000000000000000000000000000000000000000000000000000815260206004820181905260248201527f4f776e61626c653a2063616c6c6572206973206e6f7420746865206f776e6572604482015260640161036b565b73ffffffffffffffffffffffffffffffffffffffff8116610eea576040517f08c379a000000000000000000000000000000000000000000000000000000000815260206004820152602660248201527f4f776e61626c653a206e6577206f776e657220697320746865207a65726f206160448201527f6464726573730000000000000000000000000000000000000000000000000000606482015260840161036b565b610ef3816112bb565b50565b60005473ffffffffffffffffffffffffffffffffffffffff163314610f77576040517f08c379a000000000000000000000000000000000000000000000000000000000815260206004820181905260248201527f4f776e61626c653a2063616c6c6572206973206e6f7420746865206f776e6572604482015260640161036b565b6040805160608101825284815260208082018581528284018581526002805460009081526003855295909520845181559151600183015551805193949193610fc793928501929190910190611626565b505060028054849250906000610fdc83611d91565b919050557fb920eca87e99c1731d756a5533a92f0e02ae5e4c79d50260a7303364f210ad018584604051611011929190611e23565b60405180910390a3505050565b600081815b85518110156110c257600086828151811061104057611040611d33565b602002602001015190508083116110825760408051602081018590529081018290526060016040516020818303038152906040528051906020012092506110af565b60408051602081018390529081018490526060016040516020818303038152906040528051906020012092505b50806110ba81611d91565b915050611023565b50831490505b9392505050565b80471015611139576040517f08c379a000000000000000000000000000000000000000000000000000000000815260206004820152601d60248201527f416464726573733a20696e73756666696369656e742062616c616e6365000000604482015260640161036b565b60008273ffffffffffffffffffffffffffffffffffffffff168260405160006040518083038185875af1925050503d8060008114611193576040519150601f19603f3d011682016040523d82523d6000602084013e611198565b606091505b5050905080611229576040517f08c379a000000000000000000000000000000000000000000000000000000000815260206004820152603a60248201527f416464726573733a20756e61626c6520746f2073656e642076616c75652c207260448201527f6563697069656e74206d61792068617665207265766572746564000000000000606482015260840161036b565b505050565b6040805173ffffffffffffffffffffffffffffffffffffffff8416602482015260448082018490528251808303909101815260649091019091526020810180517bffffffffffffffffffffffffffffffffffffffffffffffffffffffff167fa9059cbb00000000000000000000000000000000000000000000000000000000179052611229908490611330565b6000805473ffffffffffffffffffffffffffffffffffffffff8381167fffffffffffffffffffffffff0000000000000000000000000000000000000000831681178455604051919092169283917f8be0079c531659141344cd1fd0a4f28419497f9722a3daafe3b4186f6b6457e09190a35050565b6000611392826040518060400160405280602081526020017f5361666545524332303a206c6f772d6c6576656c2063616c6c206661696c65648152508573ffffffffffffffffffffffffffffffffffffffff1661143c9092919063ffffffff16565b80519091501561122957808060200190518101906113b09190611e3c565b611229576040517f08c379a000000000000000000000000000000000000000000000000000000000815260206004820152602a60248201527f5361666545524332303a204552433230206f7065726174696f6e20646964206e60448201527f6f74207375636365656400000000000000000000000000000000000000000000606482015260840161036b565b606061144b8484600085611453565b949350505050565b6060824710156114e5576040517f08c379a000000000000000000000000000000000000000000000000000000000815260206004820152602660248201527f416464726573733a20696e73756666696369656e742062616c616e636520666f60448201527f722063616c6c0000000000000000000000000000000000000000000000000000606482015260840161036b565b843b61154d576040517f08c379a000000000000000000000000000000000000000000000000000000000815260206004820152601d60248201527f416464726573733a2063616c6c20746f206e6f6e2d636f6e7472616374000000604482015260640161036b565b6000808673ffffffffffffffffffffffffffffffffffffffff1685876040516115769190611e5e565b60006040518083038185875af1925050503d80600081146115b3576040519150601f19603f3d011682016040523d82523d6000602084013e6115b8565b606091505b50915091506115c88282866115d3565b979650505050505050565b606083156115e25750816110c8565b8251156115f25782518084602001fd5b816040517f08c379a000000000000000000000000000000000000000000000000000000000815260040161036b9190611e7a565b82805461163290611cdf565b90600052602060002090601f016020900481019282611654576000855561169a565b82601f1061166d57805160ff191683800117855561169a565b8280016001018555821561169a579182015b8281111561169a57825182559160200191906001019061167f565b506116a69291506116aa565b5090565b5b808211156116a657600081556001016116ab565b600080604083850312156116d257600080fd5b50508035926020909101359150565b73ffffffffffffffffffffffffffffffffffffffff81168114610ef357600080fd5b60008083601f84011261171557600080fd5b50813567ffffffffffffffff81111561172d57600080fd5b6020830191508360208260051b850101111561174857600080fd5b9250929050565b600080600080600080600080600060c08a8c03121561176d57600080fd5b8935985060208a0135975060408a0135611786816116e1565b965060608a013567ffffffffffffffff808211156117a357600080fd5b6117af8d838e01611703565b909850965060808c01359150808211156117c857600080fd5b6117d48d838e01611703565b909650945060a08c01359150808211156117ed57600080fd5b506117fa8c828d01611703565b915080935050809150509295985092959850929598565b60006020828403121561182357600080fd5b5035919050565b60005b8381101561184557818101518382015260200161182d565b83811115611854576000848401525b50505050565b6000815180845261187281602086016020860161182a565b601f017fffffffffffffffffffffffffffffffffffffffffffffffffffffffffffffffe0169290920160200192915050565b8381528260208201526060604082015260006118c3606083018461185a565b95945050505050565b600080600080604085870312156118e257600080fd5b843567ffffffffffffffff808211156118fa57600080fd5b61190688838901611703565b9096509450602087013591508082111561191f57600080fd5b5061192c87828801611703565b95989497509550505050565b600080600080600080600060a0888a03121561195357600080fd5b8735965060208801359550604088013561196c816116e1565b9450606088013567ffffffffffffffff8082111561198957600080fd5b6119958b838c01611703565b909650945060808a01359150808211156119ae57600080fd5b506119bb8a828b01611703565b989b979a50959850939692959293505050565b6040815260006119e1604083018561185a565b90508260208301529392505050565b60008060008060608587031215611a0657600080fd5b843593506020850135611a18816116e1565b9250604085013567ffffffffffffffff811115611a3457600080fd5b61192c87828801611703565b600081518084526020808501945080840160005b83811015611a7057815187529582019590820190600101611a54565b509495945050505050565b6020815260006110c86020830184611a40565b600060208284031215611aa057600080fd5b81356110c8816116e1565b7f4e487b7100000000000000000000000000000000000000000000000000000000600052604160045260246000fd5b600080600060608486031215611aef57600080fd5b8335925060208401359150604084013567ffffffffffffffff80821115611b1557600080fd5b818601915086601f830112611b2957600080fd5b813581811115611b3b57611b3b611aab565b604051601f82017fffffffffffffffffffffffffffffffffffffffffffffffffffffffffffffffe0908116603f01168101908382118183101715611b8157611b81611aab565b81604052828152896020848701011115611b9a57600080fd5b8260208601602083013760006020848301015280955050505050509250925092565b600080600060608486031215611bd157600080fd5b8335611bdc816116e1565b9250602084013591506040840135611bf3816116e1565b809150509250925092565b8183526000602080850194508260005b85811015611a70578135611c21816116e1565b73ffffffffffffffffffffffffffffffffffffffff1687529582019590820190600101611c0e565b87815286602082015273ffffffffffffffffffffffffffffffffffffffff8616604082015260a060608201526000611c8560a083018688611bfe565b82810360808401528381527f07ffffffffffffffffffffffffffffffffffffffffffffffffffffffffffffff841115611cbd57600080fd5b8360051b80866020840137600091016020019081529998505050505050505050565b600181811c90821680611cf357607f821691505b60208210811415611d2d577f4e487b7100000000000000000000000000000000000000000000000000000000600052602260045260246000fd5b50919050565b7f4e487b7100000000000000000000000000000000000000000000000000000000600052603260045260246000fd5b7f4e487b7100000000000000000000000000000000000000000000000000000000600052601160045260246000fd5b60007fffffffffffffffffffffffffffffffffffffffffffffffffffffffffffffffff821415611dc357611dc3611d62565b5060010190565b600082821015611ddc57611ddc611d62565b500390565b73ffffffffffffffffffffffffffffffffffffffff85168152606060208201526000611e11606083018587611bfe565b82810360408401526115c88185611a40565b82815260406020820152600061144b604083018461185a565b600060208284031215611e4e57600080fd5b815180151581146110c857600080fd5b60008251611e7081846020870161182a565b9190910192915050565b6020815260006110c8602083018461185a56fea164736f6c6343000809000a",
  "linkReferences": {},
  "deployedLinkReferences": {}
}